:0400000069EF05F0AF
:08000800046ED8CF05F0E0CF33
:1000100006F00001E9CF0CF0EACF07F0E1CF08F0DD
:10002000E2CF09F0D9CF0AF0DACF0BF0F3CF12F01C
:10003000F4CF13F0FACF14F000C00EF001C00FF0AF
:1000400002C010F003C011F09DA02AEF00F09EB096
:100050007EEF00F00EC000F00FC001F010C002F003
:1000600011C003F00CC0E9FF07C0EAFF078E08C00B
:10007000E1FF09C0E2FF0AC0D9FF0BC0DAFF12C0DE
:10008000F3FF13C0F4FF14C0FAFF045006C0E0FFF2
:1000900005C0D8FF1000F2CF0DF0F29EF76AB00F46
:1000A000F66E000EF7220900F5500DBEF28E12001A
:1000B000C0F9A4B0999282F880908883C6A1868EF8
:1000C000F2CF0DF0F29EF76ADA0FF66E000EF7220D
:1000D0000900F5500DBEF28E120080C094D4F2CF0C
:1000E0000DF0F29EF76AF80FF66E000EF722090087
:1000F000F5500DBEF28E12003F7FBFFF2CB203D031
:100100004350020809E23C2A3CBE05D03C50090895
:1001100002E23C6A3D2A02D03C6A3D6A0B0ECF6E79
:10012000DC0ECE6E9E902AEF00F054686F69206757
:1001300069616E3A00004E672F54682F4E616D3A28
:1001400000002020202020202020202020202020EF
:1001500020202020202000004E68617020706173F4
:10016000733A000042616E206461206E6861702005
:1001700064756E672021212100004E6861707361F3
:100180006920686179206E686170206C6169000087
:1001900042616E206E6861707361692071756120C3
:1001A000336C616E0000000E956E966E956A8C68D9
:1001B0001668176895928C9295908C901A6A196AB5
:1001C000A5EF05F06CC06EF06D6B6D5107080EE386
:1001D0006EBF02D08D9401D08D84969496908D90B0
:1001E00096908D80D8906E376D2BEFD71200956A60
:1001F0008C6A17BC02D08C9C01D08C8C959C17B853
:1002000002D08C9801D08C88959817B402D08C9429
:1002100001D08C84959495908C801BEF01F019C0CF
:100220005CF01AC05DF05DC06CF0CCDF5CC06CF0BF
:10023000C9DF1794DCD795968C8695968C96959009
:100240008C901200198AEBDFB3EF05F094928B9239
:1002500094948B941200956A8C6A16B802D08C988C
:1002600001D08C88959816BC02D08C9C01D08C8CC7
:10027000959C16B402D08C9401D08C849594959260
:100280008C82120022C06CF09DDF21C06CF09ADFDE
:1002900020C06CF097DF1FC06CF094DF1694DBDF9A
:1002A00095968C8695968C9695928C925FEF01F040
:1002B0006251206E201E63C01FF01F1EE3D7120084
:1002C0002F802FC062F061C063F0F2DF2F902FC04B
:1002D00062F061C063F0ECDF12002F9460C061F047
:1002E000EFDF200E006E002EFED700D000001200BF
:1002F000EA6A5F0EE96EEF500DE0060E016E006ACD
:10030000002EFED7012EFBD77B0E006E002EFED7EF
:10031000EF2EF3D712002F902F922F842F96380EA6
:10032000606FDBDF420E006E002EFED700000C0E69
:10033000606FD3DF420E006E002EFED70000010E6C
:10034000606FCBDF020E5F6ED3DF060E606FC5DF1E
:10035000420E006E002EFED70000B7EF05F0036AD4
:100360005D50F2CF5FF0F29EABDE5FBEF28E5E2498
:100370005F6E606FB2DF12002F845EC061F0A0DF9D
:10038000200E006E002EFED700D0000012000900E3
:10039000F5520CE0F6CF5CF0F7CF5DF0F5CF5EF0F4
:1003A000EBDF5CC0F6FF5DC0F7FFF1D71200080E6F
:1003B000016E050E006E002EFED78A929392060EF5
:1003C000006E002EFED75C368A90D8B09380D8A0FD
:1003D0009390938281A2FED7012EEBD7050E006E7B
:1003E000002EFED78A92939200009380060E006E34
:1003F000002EFED7060E006E002EFED7938281A23D
:10040000FED7016A060E006E002EFED781B0018075
:100410008A9293928A9093901200080E5D6E00C0AB
:100420005EF09380060E006E002EFED7938281A2AE
:10043000FED781B0D88081A0D8900136050E006E1D
:10044000002EFED793928A925D2EEBD79380060EF4
:10045000006E002EFED78A905E50D8A493900000C4
:10046000938281A2FED7050E006E002EFED78A92DF
:100470009392060E006E002EFED78A909390120083
:100480009380050E006E002EFED79382060E006E3E
:10049000002EFED78A909390050E006E002EFED798
:1004A0008A929392D00E5C6E82DF5C6A80DF9380CA
:1004B000050E006E002EFED79382060E006E002EF3
:1004C000FED781A2FED78A909390050E006E002E73
:1004D000FED78A929392D10E5C6E69DF010E006E98
:1004E0009CDF01C036F0010E006E97DF01C035F0D1
:1004F000010E006E92DF01C034F0010E006E8DDF40
:1005000001C033F0010E006E88DF01C032F0010E31
:10051000006E83DF01C031F0010E006E7EDF01C08E
:1005200030F0010E006E79DF01C038F0006A75DF2F
:1005300001C037F093900000938281A2FED7050E90
:10054000006E002EFED700D000009380050E006ED6
:10055000002EFED71200590E366E356E210E346E07
:10056000040E336E200E326E040E316E220E306E8B
:10057000900E386E910E376ED0EF05F09380050E19
:10058000006E002EFED79382060E006E002EFED760
:100590008A909390050E006E002EFED78A92939259
:1005A000D00E5C6E04DF5C6A02DF36C05CF0FFDEFA
:1005B00035C05CF0FCDE34C05CF0F9DE33C05CF0CA
:1005C000F6DE32C05CF0F3DE31C05CF0F0DE30C04D
:1005D0005CF0EDDE38C05CF0EADE37C05CF0E7DEF0
:1005E00093900000938281A2FED7050E006E002E2C
:1005F000FED700D000009380050E006E002EFED7BF
:10060000D1EF05F08C0E606F68DE3438006E0F0E8F
:1006100000160050300F5C6E5E6EAEDE34500F0B75
:10062000300F5C6E5E6EA8DE3A0E5E6EA5DE35386B
:10063000006E0F0E00160050300F5C6E5E6E9CDE7A
:1006400035500F0B300F5C6E5E6E96DE3A0E5E6EAE
:1006500093DE3638006E0F0E00160050300F5C6EC1
:100660005E6E8ADE36500F0B300F5C6E5E6E84DE7F
:10067000CC0E606F32DE3238006E0F0E0016005066
:10068000300F5C6E5E6E78DE32500F0B300F5C6E9A
:100690005E6E72DE2F0E5E6E6FDE3138006E0F0EF4
:1006A00000160050300F5C6E5E6E66DE31500F0B30
:1006B000300F5C6E5E6E60DE2F0E5E6E5DDE30387B
:1006C000006E0F0E00160050300F5C6E5E6E54DE32
:1006D00030500F0B300F5C6E5E6E4EDEE1EF05F0BA
:1006E0005C505E02F3CF01F0F4CF00F05F02F350F4
:1006F00000265D505E02F3500020026EC2EF03F050
:10070000016A026A006A036A685102E1675118E0EF
:10071000100E696FD890653766370036033668511A
:10072000035C02E16751005C07E36751005ED8A0FB
:1007300003066851035ED88001360236692FEAD776
:1007400012006BC06CF03EDD6AC06CF03BDD69C02E
:100750006CF038DD68C06CF035DD169C7CDD959E54
:100760008C9E959E8C8E95928C9241EF04F0D65083
:10077000446ED7CF45F047C05DF046C05CF05F6A7D
:100780005E68AED744500124486E45500220496E41
:1007900049C066F048C065F0030E686FE80E676FE9
:1007A000AFDF02C05DF001C05CF002C003F0015099
:1007B000F2CF5EF0F29E6FDC5EBEF28E5E6E49C0DE
:1007C00066F048C065F0686B640E676F99DF02C021
:1007D00060F001C05FF002C066F001C065F0686BB8
:1007E0000A0E676F8DDF00C05FF003C060F003C0CA
:1007F00003F00050F2CF61F0F29E4DDC61BFF28E4B
:10080000616F49C066F048C065F0686B0A0E676F9B
:1008100077DF02C063F001C062F002C066F001C081
:1008200065F0686B0A0E676F6BDF00C062F003C093
:1008300063F003C003F00050F2CF64F0F29E2BDCB3
:1008400064BFF28E646F49C066F048C065F0686BA3
:100850000A0E676F55DF00C065F003C066F003C085
:1008600003F00050F2CF67F0F29E15DC67BFF28E06
:10087000676F5EC068F061C069F064C06AF06B6F5A
:1008800060D7443C07D0455205E1462AD8B4472AF0
:10089000D76AD66A4850100808E14950270805E190
:1008A000476A466AD76A010ED66E61EF04F09286F7
:1008B00080A603D02C90D56A04D02C80E80ED56E8B
:1008C00056D7000E2CB4010E5C6E9286000E80B6D8
:1008D000010E5C5C05E02C8292862C9480B62C8400
:1008E0001200020E5D6E0C0E5E6E39DD5C6A4A50BF
:1008F0005C5C0EE2036A5C50530FE96E000E03204D
:10090000EA6E300EEF245D6E5E6E36DD5C2AEFD748
:100910000CEF06F0006A016A5F50D89060B10026C3
:100920000032013260B300260032013260B5002689
:100930000032013260B700260032013260B9002671
:100940000032013260BB00260032013260BD002659
:100950000032013260BF002600320132EBEF04F0BA
:100960005D685DC05CF05E6A5EBE03D05E500308E9
:100970002AE3036A5E50F2CF5FF0F29E6FEC00F064
:100980005FBEF28E936A8A6E938481B403D05D6AEF
:100990001AD014D0938681B604D0010E5D6E13D0A8
:1009A0000DD0938881B804D0020E5D6E0CD006D0B5
:1009B000938A81BA03D0030E5D6E05D01E0E5F6E62
:1009C00097DC5E2AD1D75D3C01D008D05EC05FF0D5
:1009D000040E606F9FD75D5001245C6E5CC001F017
:1009E0001200BEDF01C03AF03A3C01D00FD0010E38
:1009F0005F6E7EDCB5DF01C03AF0B2DF01C03BF0D4
:100A00001E0E5F6E75DC3A503B5CF7E03AC001F0B9
:100A10000DEF06F05C6A4A505C5C0AE2036A5C50C7
:100A2000530FE96E000E0320EA6EEF6A5C2AF3D7DB
:100A30001200616B6051615D18E2036A61515C24D0
:100A4000E96E5D500320EA6EEFCF62F0036A6151F8
:100A50005E24E96E5F500320EA6EEF50625D03E0B2
:100A6000000E016E04D0612BE5D7010E016E50EF30
:100A700006F094928B8294948B944CEF05F09492B0
:100A80008B9294948B844CEF05F02CA206D02CA072
:100A900002D0EFD701D0F3D702D026EC01F073EFEC
:100AA00006F01A800FEC01F060EF05F01A900FECE1
:100AB00001F012003DBE03D03D50020802E3F1D721
:100AC00006D03D50030802E1F1DF01D03D6A8DEF11
:100AD00006F0F86AD09E078E186A1F6A206A216A9B
:100AE000226A2B6A2C902C923A6A3B6A080E3F6E5F
:100AF000140E406E020E426E080E4A6EC150C00BBC
:100B00000F09C16E070EB46E236824682568266835
:100B10002768286829682A68010E4B6E090E4C6EFA
:100B2000010E4D6E040E4E6E020E4F6E506E090E8B
:100B3000516E080E526E536A546A556A566A576A65
:100B4000586A596A5A6AD3EF00F0D56AD76AD66AEA
:100B5000B50ECD6E0B0ECF6EDC0ECE6EC00EF21249
:100B60009D8022EF01F026EC01F08BEF01F05D6A31
:100B70005E6AAFEC01F02A0EF66E010EF76E07DC2E
:100B8000010E5D6E5E6AAFEC01F0360EF66E010E80
:100B9000F76EC7EC01F074DC3750910802E0DBD44B
:100BA000EDD46EDC36C039F02C96436A3D6A476A54
:100BB000466A92862C9480B62C8462DC36C039F06A
:100BC00021D53438006E0F0E001600500A0DF3CFF9
:100BD0005CF034500F0B5C24416E3F50415C10E3DD
:100BE0004150405C0DE363DE020E5D6E5E6AAFEC69
:100BF00001F0420EF66E010EF76EC7EC01F06FD0F9
:100C0000020E5D6E5E6AAFEC01F0580EF66E010EDC
:100C1000F76EC7EC01F065D6E4D601C03EF03E3C6D
:100C200001D05DD03EBE03D03E50090829E35B6A87
:100C3000010E4A5C5B5C1AE2036A5B50530F016E63
:100C4000000E032203C05DF0010E5B24036A530F04
:100C5000E96E000E0320EA6EEFCF5EF05DC0EAFFA2
:100C600001C0E9FF5EC0EFFF5B2AE2D7010E4A5CDC
:100C7000036A530FE96E000E0320EA6E3EC0EFFFD9
:100C80003E500A0801E1C6DE3E500F0828E15D6AC9
:100C90004B0E5C6E5F6A530E5E6E4AC060F0C9D642
:100CA0002C9601B02C862CA60ED0436A030E5D6EE6
:100CB0005E6AAFEC01F0640EF66E010EF76EC7ECE3
:100CC00001F0A8DE0CD0432A030E5D6E5E6AAFEC25
:100CD00001F07A0EF66E010EF76EC7EC01F02CA64D
:100CE00001D0E5DDD2D63DBE09D042503D5C06E3E1
:100CF0002C922CB003D02CA601D02C964350020885
:100D00000DE2030E5D6E5E6AAFEC01F0900EF66EC2
:100D1000010EF76EC7EC01F0CDD601D0C7DE4DD77E
:020D20000300CE
:020000040030CA
:0E00000027CC3E1E0087A1000FC00FE00F406E
:00000001FF
;PIC18F4550
;CRC=A5FD  CREATED="19-Thg9-22 10:45"
